{
  "_format": "hh-sol-artifact-1",
  "contractName": "FluxPriceFeed",
  "sourceName": "contracts/FluxPriceFeed.sol",
  "abi": [
    {
      "inputs": [
        {
          "internalType": "address",
          "name": "_validator",
          "type": "address"
        },
        {
          "internalType": "uint8",
          "name": "_decimals",
          "type": "uint8"
        },
        {
          "internalType": "string",
          "name": "__description",
          "type": "string"
        }
      ],
      "stateMutability": "nonpayable",
      "type": "constructor"
    },
    {
      "anonymous": false,
      "inputs": [
        {
          "indexed": true,
          "internalType": "int256",
          "name": "current",
          "type": "int256"
        },
        {
          "indexed": true,
          "internalType": "uint256",
          "name": "roundId",
          "type": "uint256"
        },
        {
          "indexed": false,
          "internalType": "uint256",
          "name": "updatedAt",
          "type": "uint256"
        }
      ],
      "name": "AnswerUpdated",
      "type": "event"
    },
    {
      "anonymous": false,
      "inputs": [
        {
          "indexed": true,
          "internalType": "uint256",
          "name": "roundId",
          "type": "uint256"
        },
        {
          "indexed": true,
          "internalType": "address",
          "name": "startedBy",
          "type": "address"
        },
        {
          "indexed": false,
          "internalType": "uint256",
          "name": "startedAt",
          "type": "uint256"
        }
      ],
      "name": "NewRound",
      "type": "event"
    },
    {
      "anonymous": false,
      "inputs": [
        {
          "indexed": true,
          "internalType": "uint32",
          "name": "aggregatorRoundId",
          "type": "uint32"
        },
        {
          "indexed": false,
          "internalType": "int192",
          "name": "answer",
          "type": "int192"
        },
        {
          "indexed": false,
          "internalType": "address",
          "name": "transmitter",
          "type": "address"
        }
      ],
      "name": "NewTransmission",
      "type": "event"
    },
    {
      "anonymous": false,
      "inputs": [
        {
          "indexed": true,
          "internalType": "bytes32",
          "name": "role",
          "type": "bytes32"
        },
        {
          "indexed": true,
          "internalType": "bytes32",
          "name": "previousAdminRole",
          "type": "bytes32"
        },
        {
          "indexed": true,
          "internalType": "bytes32",
          "name": "newAdminRole",
          "type": "bytes32"
        }
      ],
      "name": "RoleAdminChanged",
      "type": "event"
    },
    {
      "anonymous": false,
      "inputs": [
        {
          "indexed": true,
          "internalType": "bytes32",
          "name": "role",
          "type": "bytes32"
        },
        {
          "indexed": true,
          "internalType": "address",
          "name": "account",
          "type": "address"
        },
        {
          "indexed": true,
          "internalType": "address",
          "name": "sender",
          "type": "address"
        }
      ],
      "name": "RoleGranted",
      "type": "event"
    },
    {
      "anonymous": false,
      "inputs": [
        {
          "indexed": true,
          "internalType": "bytes32",
          "name": "role",
          "type": "bytes32"
        },
        {
          "indexed": true,
          "internalType": "address",
          "name": "account",
          "type": "address"
        },
        {
          "indexed": true,
          "internalType": "address",
          "name": "sender",
          "type": "address"
        }
      ],
      "name": "RoleRevoked",
      "type": "event"
    },
    {
      "inputs": [],
      "name": "DEFAULT_ADMIN_ROLE",
      "outputs": [
        {
          "internalType": "bytes32",
          "name": "",
          "type": "bytes32"
        }
      ],
      "stateMutability": "view",
      "type": "function"
    },
    {
      "inputs": [],
      "name": "VALIDATOR_ROLE",
      "outputs": [
        {
          "internalType": "bytes32",
          "name": "",
          "type": "bytes32"
        }
      ],
      "stateMutability": "view",
      "type": "function"
    },
    {
      "inputs": [],
      "name": "decimals",
      "outputs": [
        {
          "internalType": "uint8",
          "name": "",
          "type": "uint8"
        }
      ],
      "stateMutability": "view",
      "type": "function"
    },
    {
      "inputs": [],
      "name": "description",
      "outputs": [
        {
          "internalType": "string",
          "name": "",
          "type": "string"
        }
      ],
      "stateMutability": "view",
      "type": "function"
    },
    {
      "inputs": [
        {
          "internalType": "uint256",
          "name": "_roundId",
          "type": "uint256"
        }
      ],
      "name": "getAnswer",
      "outputs": [
        {
          "internalType": "int256",
          "name": "",
          "type": "int256"
        }
      ],
      "stateMutability": "view",
      "type": "function"
    },
    {
      "inputs": [
        {
          "internalType": "bytes32",
          "name": "role",
          "type": "bytes32"
        }
      ],
      "name": "getRoleAdmin",
      "outputs": [
        {
          "internalType": "bytes32",
          "name": "",
          "type": "bytes32"
        }
      ],
      "stateMutability": "view",
      "type": "function"
    },
    {
      "inputs": [
        {
          "internalType": "uint80",
          "name": "_roundId",
          "type": "uint80"
        }
      ],
      "name": "getRoundData",
      "outputs": [
        {
          "internalType": "uint80",
          "name": "roundId",
          "type": "uint80"
        },
        {
          "internalType": "int256",
          "name": "answer",
          "type": "int256"
        },
        {
          "internalType": "uint256",
          "name": "startedAt",
          "type": "uint256"
        },
        {
          "internalType": "uint256",
          "name": "updatedAt",
          "type": "uint256"
        },
        {
          "internalType": "uint80",
          "name": "answeredInRound",
          "type": "uint80"
        }
      ],
      "stateMutability": "view",
      "type": "function"
    },
    {
      "inputs": [
        {
          "internalType": "uint256",
          "name": "_roundId",
          "type": "uint256"
        }
      ],
      "name": "getTimestamp",
      "outputs": [
        {
          "internalType": "uint256",
          "name": "",
          "type": "uint256"
        }
      ],
      "stateMutability": "view",
      "type": "function"
    },
    {
      "inputs": [
        {
          "internalType": "bytes32",
          "name": "role",
          "type": "bytes32"
        },
        {
          "internalType": "address",
          "name": "account",
          "type": "address"
        }
      ],
      "name": "grantRole",
      "outputs": [],
      "stateMutability": "nonpayable",
      "type": "function"
    },
    {
      "inputs": [
        {
          "internalType": "bytes32",
          "name": "role",
          "type": "bytes32"
        },
        {
          "internalType": "address",
          "name": "account",
          "type": "address"
        }
      ],
      "name": "hasRole",
      "outputs": [
        {
          "internalType": "bool",
          "name": "",
          "type": "bool"
        }
      ],
      "stateMutability": "view",
      "type": "function"
    },
    {
      "inputs": [],
      "name": "latestAggregatorRoundId",
      "outputs": [
        {
          "internalType": "uint32",
          "name": "",
          "type": "uint32"
        }
      ],
      "stateMutability": "view",
      "type": "function"
    },
    {
      "inputs": [],
      "name": "latestAnswer",
      "outputs": [
        {
          "internalType": "int256",
          "name": "",
          "type": "int256"
        }
      ],
      "stateMutability": "view",
      "type": "function"
    },
    {
      "inputs": [],
      "name": "latestRound",
      "outputs": [
        {
          "internalType": "uint256",
          "name": "",
          "type": "uint256"
        }
      ],
      "stateMutability": "view",
      "type": "function"
    },
    {
      "inputs": [],
      "name": "latestRoundData",
      "outputs": [
        {
          "internalType": "uint80",
          "name": "roundId",
          "type": "uint80"
        },
        {
          "internalType": "int256",
          "name": "answer",
          "type": "int256"
        },
        {
          "internalType": "uint256",
          "name": "startedAt",
          "type": "uint256"
        },
        {
          "internalType": "uint256",
          "name": "updatedAt",
          "type": "uint256"
        },
        {
          "internalType": "uint80",
          "name": "answeredInRound",
          "type": "uint80"
        }
      ],
      "stateMutability": "view",
      "type": "function"
    },
    {
      "inputs": [],
      "name": "latestTimestamp",
      "outputs": [
        {
          "internalType": "uint256",
          "name": "",
          "type": "uint256"
        }
      ],
      "stateMutability": "view",
      "type": "function"
    },
    {
      "inputs": [],
      "name": "latestTransmissionDetails",
      "outputs": [
        {
          "internalType": "int192",
          "name": "_latestAnswer",
          "type": "int192"
        },
        {
          "internalType": "uint64",
          "name": "_latestTimestamp",
          "type": "uint64"
        }
      ],
      "stateMutability": "view",
      "type": "function"
    },
    {
      "inputs": [
        {
          "internalType": "bytes32",
          "name": "role",
          "type": "bytes32"
        },
        {
          "internalType": "address",
          "name": "account",
          "type": "address"
        }
      ],
      "name": "renounceRole",
      "outputs": [],
      "stateMutability": "nonpayable",
      "type": "function"
    },
    {
      "inputs": [
        {
          "internalType": "bytes32",
          "name": "role",
          "type": "bytes32"
        },
        {
          "internalType": "address",
          "name": "account",
          "type": "address"
        }
      ],
      "name": "revokeRole",
      "outputs": [],
      "stateMutability": "nonpayable",
      "type": "function"
    },
    {
      "inputs": [
        {
          "internalType": "bytes4",
          "name": "interfaceId",
          "type": "bytes4"
        }
      ],
      "name": "supportsInterface",
      "outputs": [
        {
          "internalType": "bool",
          "name": "",
          "type": "bool"
        }
      ],
      "stateMutability": "view",
      "type": "function"
    },
    {
      "inputs": [
        {
          "internalType": "int192",
          "name": "_answer",
          "type": "int192"
        }
      ],
      "name": "transmit",
      "outputs": [],
      "stateMutability": "nonpayable",
      "type": "function"
    },
    {
      "inputs": [],
      "name": "typeAndVersion",
      "outputs": [
        {
          "internalType": "string",
          "name": "",
          "type": "string"
        }
      ],
      "stateMutability": "pure",
      "type": "function"
    },
    {
      "inputs": [],
      "name": "version",
      "outputs": [
        {
          "internalType": "uint256",
          "name": "",
          "type": "uint256"
        }
      ],
      "stateMutability": "view",
      "type": "function"
    }
  ],
  "bytecode": "0x60a06040523480156200001157600080fd5b5060405162001206380380620012068339810160408190526200003491620001ff565b6200004160003362000093565b6200006d7f21702c8af46127c7fa207f89d0b0a8441bb32959a0ac7df790e9ab1a25c989268462000093565b60ff821660805280516200008990600390602084019062000143565b5050505062000356565b6200009f8282620000a3565b5050565b6000828152602081815260408083206001600160a01b038516845290915290205460ff166200009f576000828152602081815260408083206001600160a01b03851684529091529020805460ff19166001179055620000ff3390565b6001600160a01b0316816001600160a01b0316837f2f8788117e7eff1d82e926ec794901d17c78024a50270940304540a733656f0d60405160405180910390a45050565b828054620001519062000319565b90600052602060002090601f016020900481019282620001755760008555620001c0565b82601f106200019057805160ff1916838001178555620001c0565b82800160010185558215620001c0579182015b82811115620001c0578251825591602001919060010190620001a3565b50620001ce929150620001d2565b5090565b5b80821115620001ce5760008155600101620001d3565b634e487b7160e01b600052604160045260246000fd5b6000806000606084860312156200021557600080fd5b83516001600160a01b03811681146200022d57600080fd5b8093505060208085015160ff811681146200024757600080fd5b60408601519093506001600160401b03808211156200026557600080fd5b818701915087601f8301126200027a57600080fd5b8151818111156200028f576200028f620001e9565b604051601f8201601f19908116603f01168101908382118183101715620002ba57620002ba620001e9565b816040528281528a86848701011115620002d357600080fd5b600093505b82841015620002f75784840186015181850187015292850192620002d8565b82841115620003095760008684830101525b8096505050505050509250925092565b600181811c908216806200032e57607f821691505b602082108114156200035057634e487b7160e01b600052602260045260246000fd5b50919050565b608051610e9462000372600039600061023c0152610e946000f3fe608060405234801561001057600080fd5b50600436106101825760003560e01c80638205bf6a116100d8578063b5ab58dc1161008c578063d547741f11610066578063d547741f146103fd578063e5fe457714610410578063feaf968c1461046257600080fd5b8063b5ab58dc146103b0578063b633620c146103c3578063c49baebe146103d657600080fd5b806391d14854116100bd57806391d14854146103275780639a6fc8f51461035e578063a217fddf146103a857600080fd5b80638205bf6a146102e657806382b8ebc71461031457600080fd5b806336568abe1161013a5780635ed63b40116101145780635ed63b40146102ab578063668a0f02146102d05780637284e416146102de57600080fd5b806336568abe1461027057806350d25bcd1461028357806354fd4d50146102a357600080fd5b8063248a9ca31161016b578063248a9ca3146101f15780632f2ff15d14610222578063313ce5671461023757600080fd5b806301ffc9a714610187578063181f5a77146101af575b600080fd5b61019a610195366004610be6565b6104b2565b60405190151581526020015b60405180910390f35b60408051808201909152601381527f466c757850726963654665656420312e322e300000000000000000000000000060208201525b6040516101a69190610c40565b6102146101ff366004610c73565b60009081526020819052604090206001015490565b6040519081526020016101a6565b610235610230366004610c8c565b6104e9565b005b61025e7f000000000000000000000000000000000000000000000000000000000000000081565b60405160ff90911681526020016101a6565b61023561027e366004610c8c565b610514565b60015463ffffffff1660009081526002602052604090205460170b610214565b610214600181565b6001546102bb9063ffffffff1681565b60405163ffffffff90911681526020016101a6565b60015463ffffffff16610214565b6101e46105a5565b60015463ffffffff16600090815260026020526040902054600160c01b900467ffffffffffffffff16610214565b610235610322366004610cc8565b610637565b61019a610335366004610c8c565b6000918252602082815260408084206001600160a01b0393909316845291905290205460ff1690565b61037161036c366004610ceb565b610740565b6040805169ffffffffffffffffffff968716815260208101959095528401929092526060830152909116608082015260a0016101a6565b610214600081565b6102146103be366004610c73565b610803565b6102146103d1366004610c73565b610835565b6102147f21702c8af46127c7fa207f89d0b0a8441bb32959a0ac7df790e9ab1a25c9892681565b61023561040b366004610c8c565b610875565b60015463ffffffff16600090815260026020526040902054601781900b90600160c01b900467ffffffffffffffff166040805160179390930b835267ffffffffffffffff9091166020830152016101a6565b61037160015463ffffffff16600081815260026020908152604091829020825180840190935254601781900b808452600160c01b90910467ffffffffffffffff1692909101829052919281908490565b60006001600160e01b03198216637965db0b60e01b14806104e357506301ffc9a760e01b6001600160e01b03198316145b92915050565b600082815260208190526040902060010154610505813361089b565b61050f8383610919565b505050565b6001600160a01b03811633146105975760405162461bcd60e51b815260206004820152602f60248201527f416363657373436f6e74726f6c3a2063616e206f6e6c792072656e6f756e636560448201527f20726f6c657320666f722073656c66000000000000000000000000000000000060648201526084015b60405180910390fd5b6105a182826109b7565b5050565b6060600380546105b490610d17565b80601f01602080910402602001604051908101604052809291908181526020018280546105e090610d17565b801561062d5780601f106106025761010080835404028352916020019161062d565b820191906000526020600020905b81548152906001019060200180831161061057829003601f168201915b5050505050905090565b7f21702c8af46127c7fa207f89d0b0a8441bb32959a0ac7df790e9ab1a25c98926610662813361089b565b6001805463ffffffff1690600061067883610d68565b825463ffffffff9182166101009390930a928302928202191691909117909155604080518082018252601786900b80825267ffffffffffffffff428116602080850191825260018054881660009081526002835287902095519251909316600160c01b0277ffffffffffffffffffffffffffffffffffffffffffffffff909216919091179093555483519182523392820192909252921692507f17eabd0a66fa631f7537cefdd5df6aa25d5ac904cf7596e958d43a75a00d0d68910160405180910390a25050565b600080600080600063ffffffff8669ffffffffffffffffffff1611156040518060400160405280600f81526020017f4e6f20646174612070726573656e740000000000000000000000000000000000815250906107b05760405162461bcd60e51b815260040161058e9190610c40565b5050505063ffffffff8316600090815260026020908152604091829020825180840190935254601781900b808452600160c01b90910467ffffffffffffffff169290910182905293949092508291508490565b600063ffffffff82111561081957506000919050565b5063ffffffff1660009081526002602052604090205460170b90565b600063ffffffff82111561084b57506000919050565b5063ffffffff16600090815260026020526040902054600160c01b900467ffffffffffffffff1690565b600082815260208190526040902060010154610891813361089b565b61050f83836109b7565b6000828152602081815260408083206001600160a01b038516845290915290205460ff166105a1576108d7816001600160a01b03166014610a36565b6108e2836020610a36565b6040516020016108f3929190610d8c565b60408051601f198184030181529082905262461bcd60e51b825261058e91600401610c40565b6000828152602081815260408083206001600160a01b038516845290915290205460ff166105a1576000828152602081815260408083206001600160a01b03851684529091529020805460ff191660011790556109733390565b6001600160a01b0316816001600160a01b0316837f2f8788117e7eff1d82e926ec794901d17c78024a50270940304540a733656f0d60405160405180910390a45050565b6000828152602081815260408083206001600160a01b038516845290915290205460ff16156105a1576000828152602081815260408083206001600160a01b0385168085529252808320805460ff1916905551339285917ff6391f5c32d9c69d2a47ea670b442974b53935d1edc7fd64eb21e047a839171b9190a45050565b60606000610a45836002610e0d565b610a50906002610e2c565b67ffffffffffffffff811115610a6857610a68610e44565b6040519080825280601f01601f191660200182016040528015610a92576020820181803683370190505b509050600360fc1b81600081518110610aad57610aad610e5a565b60200101906001600160f81b031916908160001a905350600f60fb1b81600181518110610adc57610adc610e5a565b60200101906001600160f81b031916908160001a9053506000610b00846002610e0d565b610b0b906001610e2c565b90505b6001811115610b90577f303132333435363738396162636465660000000000000000000000000000000085600f1660108110610b4c57610b4c610e5a565b1a60f81b828281518110610b6257610b62610e5a565b60200101906001600160f81b031916908160001a90535060049490941c93610b8981610e70565b9050610b0e565b508315610bdf5760405162461bcd60e51b815260206004820181905260248201527f537472696e67733a20686578206c656e67746820696e73756666696369656e74604482015260640161058e565b9392505050565b600060208284031215610bf857600080fd5b81356001600160e01b031981168114610bdf57600080fd5b60005b83811015610c2b578181015183820152602001610c13565b83811115610c3a576000848401525b50505050565b6020815260008251806020840152610c5f816040850160208701610c10565b601f01601f19169190910160400192915050565b600060208284031215610c8557600080fd5b5035919050565b60008060408385031215610c9f57600080fd5b8235915060208301356001600160a01b0381168114610cbd57600080fd5b809150509250929050565b600060208284031215610cda57600080fd5b81358060170b8114610bdf57600080fd5b600060208284031215610cfd57600080fd5b813569ffffffffffffffffffff81168114610bdf57600080fd5b600181811c90821680610d2b57607f821691505b60208210811415610d4c57634e487b7160e01b600052602260045260246000fd5b50919050565b634e487b7160e01b600052601160045260246000fd5b600063ffffffff80831681811415610d8257610d82610d52565b6001019392505050565b7f416363657373436f6e74726f6c3a206163636f756e7420000000000000000000815260008351610dc4816017850160208801610c10565b7f206973206d697373696e6720726f6c65200000000000000000000000000000006017918401918201528351610e01816028840160208801610c10565b01602801949350505050565b6000816000190483118215151615610e2757610e27610d52565b500290565b60008219821115610e3f57610e3f610d52565b500190565b634e487b7160e01b600052604160045260246000fd5b634e487b7160e01b600052603260045260246000fd5b600081610e7f57610e7f610d52565b50600019019056fea164736f6c634300080c000a",
  "linkReferences": {},
  "deployedLinkReferences": {}
}